{"abi":[{"type":"constructor","inputs":[{"name":"_token","type":"address","internalType":"address"},{"name":"_beneficiary","type":"address","internalType":"address"},{"name":"_start","type":"uint64","internalType":"uint64"},{"name":"_duration","type":"uint64","internalType":"uint64"},{"name":"_totalAmount","type":"uint256","internalType":"uint256"}],"stateMutability":"nonpayable"},{"type":"function","name":"beneficiary","inputs":[],"outputs":[{"name":"","type":"address","internalType":"address"}],"stateMutability":"view"},{"type":"function","name":"duration","inputs":[],"outputs":[{"name":"","type":"uint64","internalType":"uint64"}],"stateMutability":"view"},{"type":"function","name":"releasable","inputs":[],"outputs":[{"name":"","type":"uint256","internalType":"uint256"}],"stateMutability":"view"},{"type":"function","name":"release","inputs":[],"outputs":[],"stateMutability":"nonpayable"},{"type":"function","name":"released","inputs":[],"outputs":[{"name":"","type":"uint256","internalType":"uint256"}],"stateMutability":"view"},{"type":"function","name":"start","inputs":[],"outputs":[{"name":"","type":"uint64","internalType":"uint64"}],"stateMutability":"view"},{"type":"function","name":"token","inputs":[],"outputs":[{"name":"","type":"address","internalType":"contract IERC20"}],"stateMutability":"view"},{"type":"function","name":"totalAmount","inputs":[],"outputs":[{"name":"","type":"uint256","internalType":"uint256"}],"stateMutability":"view"},{"type":"function","name":"vestedAmount","inputs":[{"name":"timestamp","type":"uint64","internalType":"uint64"}],"outputs":[{"name":"","type":"uint256","internalType":"uint256"}],"stateMutability":"view"},{"type":"event","name":"Released","inputs":[{"name":"amount","type":"uint256","indexed":false,"internalType":"uint256"}],"anonymous":false}],"bytecode":{"object":"0x608060405234801562000010575f80fd5b5060405162000e7838038062000e7883398181016040528101906200003691906200032f565b5f73ffffffffffffffffffffffffffffffffffffffff168573ffffffffffffffffffffffffffffffffffffffff1603620000a7576040517f08c379a00000000000000000000000000000000000000000000000000000000081526004016200009e9062000411565b60405180910390fd5b5f73ffffffffffffffffffffffffffffffffffffffff168473ffffffffffffffffffffffffffffffffffffffff160362000118576040517f08c379a00000000000000000000000000000000000000000000000000000000081526004016200010f906200047f565b60405180910390fd5b5f8267ffffffffffffffff161162000167576040517f08c379a00000000000000000000000000000000000000000000000000000000081526004016200015e90620004ed565b60405180910390fd5b845f806101000a81548173ffffffffffffffffffffffffffffffffffffffff021916908373ffffffffffffffffffffffffffffffffffffffff1602179055508360015f6101000a81548173ffffffffffffffffffffffffffffffffffffffff021916908373ffffffffffffffffffffffffffffffffffffffff16021790555082600160146101000a81548167ffffffffffffffff021916908367ffffffffffffffff1602179055508160025f6101000a81548167ffffffffffffffff021916908367ffffffffffffffff160217905550806003819055505f60048190555050505050506200050d565b5f80fd5b5f73ffffffffffffffffffffffffffffffffffffffff82169050919050565b5f6200027f8262000254565b9050919050565b620002918162000273565b81146200029c575f80fd5b50565b5f81519050620002af8162000286565b92915050565b5f67ffffffffffffffff82169050919050565b620002d381620002b5565b8114620002de575f80fd5b50565b5f81519050620002f181620002c8565b92915050565b5f819050919050565b6200030b81620002f7565b811462000316575f80fd5b50565b5f81519050620003298162000300565b92915050565b5f805f805f60a086880312156200034b576200034a62000250565b5b5f6200035a888289016200029f565b95505060206200036d888289016200029f565b94505060406200038088828901620002e1565b93505060606200039388828901620002e1565b9250506080620003a68882890162000319565b9150509295509295909350565b5f82825260208201905092915050565b7f746f6b656e2030000000000000000000000000000000000000000000000000005f82015250565b5f620003f9600783620003b3565b91506200040682620003c3565b602082019050919050565b5f6020820190508181035f8301526200042a81620003eb565b9050919050565b7f62656e65666963696172792030000000000000000000000000000000000000005f82015250565b5f62000467600d83620003b3565b9150620004748262000431565b602082019050919050565b5f6020820190508181035f830152620004988162000459565b9050919050565b7f6475726174696f6e2030000000000000000000000000000000000000000000005f82015250565b5f620004d5600a83620003b3565b9150620004e2826200049f565b602082019050919050565b5f6020820190508181035f8301526200050681620004c7565b9050919050565b61095d806200051b5f395ff3fe608060405234801561000f575f80fd5b5060043610610091575f3560e01c806386d1a69f1161006457806386d1a69f1461011f5780639613252114610129578063be9a655514610147578063fbccedae14610165578063fc0c546a1461018357610091565b80630a17b06b146100955780630fb5a6b4146100c55780631a39d8ef146100e357806338af3eed14610101575b5f80fd5b6100af60048036038101906100aa9190610504565b6101a1565b6040516100bc9190610547565b60405180910390f35b6100cd610287565b6040516100da919061056f565b60405180910390f35b6100eb6102a0565b6040516100f89190610547565b60405180910390f35b6101096102a6565b60405161011691906105c7565b60405180910390f35b6101276102cb565b005b610131610464565b60405161013e9190610547565b60405180910390f35b61014f61046a565b60405161015c919061056f565b60405180910390f35b61016d610484565b60405161017a9190610547565b60405180910390f35b61018b6104a0565b604051610198919061063b565b60405180910390f35b5f600160149054906101000a900467ffffffffffffffff1667ffffffffffffffff168267ffffffffffffffff1610156101dc575f9050610282565b5f600160149054906101000a900467ffffffffffffffff16836101ff9190610681565b905060025f9054906101000a900467ffffffffffffffff1667ffffffffffffffff168167ffffffffffffffff161061023c57600354915050610282565b60025f9054906101000a900467ffffffffffffffff1667ffffffffffffffff168167ffffffffffffffff1660035461027491906106bc565b61027e919061072a565b9150505b919050565b60025f9054906101000a900467ffffffffffffffff1681565b60035481565b60015f9054906101000a900473ffffffffffffffffffffffffffffffffffffffff1681565b5f6102d4610484565b90505f8111610318576040517f08c379a000000000000000000000000000000000000000000000000000000000815260040161030f906107b4565b60405180910390fd5b8060045f82825461032991906107d2565b925050819055505f8054906101000a900473ffffffffffffffffffffffffffffffffffffffff1673ffffffffffffffffffffffffffffffffffffffff1663a9059cbb60015f9054906101000a900473ffffffffffffffffffffffffffffffffffffffff16836040518363ffffffff1660e01b81526004016103ab929190610805565b6020604051808303815f875af11580156103c7573d5f803e3d5ffd5b505050506040513d601f19601f820116820180604052508101906103eb9190610861565b61042a576040517f08c379a0000000000000000000000000000000000000000000000000000000008152600401610421906108d6565b60405180910390fd5b7ffb81f9b30d73d830c3544b34d827c08142579ee75710b490bab0b3995468c565816040516104599190610547565b60405180910390a150565b60045481565b600160149054906101000a900467ffffffffffffffff1681565b5f600454610491426101a1565b61049b91906108f4565b905090565b5f8054906101000a900473ffffffffffffffffffffffffffffffffffffffff1681565b5f80fd5b5f67ffffffffffffffff82169050919050565b6104e3816104c7565b81146104ed575f80fd5b50565b5f813590506104fe816104da565b92915050565b5f60208284031215610519576105186104c3565b5b5f610526848285016104f0565b91505092915050565b5f819050919050565b6105418161052f565b82525050565b5f60208201905061055a5f830184610538565b92915050565b610569816104c7565b82525050565b5f6020820190506105825f830184610560565b92915050565b5f73ffffffffffffffffffffffffffffffffffffffff82169050919050565b5f6105b182610588565b9050919050565b6105c1816105a7565b82525050565b5f6020820190506105da5f8301846105b8565b92915050565b5f819050919050565b5f6106036105fe6105f984610588565b6105e0565b610588565b9050919050565b5f610614826105e9565b9050919050565b5f6106258261060a565b9050919050565b6106358161061b565b82525050565b5f60208201905061064e5f83018461062c565b92915050565b7f4e487b71000000000000000000000000000000000000000000000000000000005f52601160045260245ffd5b5f61068b826104c7565b9150610696836104c7565b9250828203905067ffffffffffffffff8111156106b6576106b5610654565b5b92915050565b5f6106c68261052f565b91506106d18361052f565b92508282026106df8161052f565b915082820484148315176106f6576106f5610654565b5b5092915050565b7f4e487b71000000000000000000000000000000000000000000000000000000005f52601260045260245ffd5b5f6107348261052f565b915061073f8361052f565b92508261074f5761074e6106fd565b5b828204905092915050565b5f82825260208201905092915050565b7f6e6f7468696e6720746f2072656c6561736500000000000000000000000000005f82015250565b5f61079e60128361075a565b91506107a98261076a565b602082019050919050565b5f6020820190508181035f8301526107cb81610792565b9050919050565b5f6107dc8261052f565b91506107e78361052f565b92508282019050808211156107ff576107fe610654565b5b92915050565b5f6040820190506108185f8301856105b8565b6108256020830184610538565b9392505050565b5f8115159050919050565b6108408161082c565b811461084a575f80fd5b50565b5f8151905061085b81610837565b92915050565b5f60208284031215610876576108756104c3565b5b5f6108838482850161084d565b91505092915050565b7f7472616e73666572206661696c656400000000000000000000000000000000005f82015250565b5f6108c0600f8361075a565b91506108cb8261088c565b602082019050919050565b5f6020820190508181035f8301526108ed816108b4565b9050919050565b5f6108fe8261052f565b91506109098361052f565b925082820390508181111561092157610920610654565b5b9291505056fea26469706673582212206d93bdaf78c416494ee070d59de704774aa2618ad3c7c696949334a4e3c39b4364736f6c63430008140033","linkReferences":{}},"methodIdentifiers":{"beneficiary()":"38af3eed","duration()":"0fb5a6b4","releasable()":"fbccedae","release()":"86d1a69f","released()":"96132521","start()":"be9a6555","token()":"fc0c546a","totalAmount()":"1a39d8ef","vestedAmount(uint64)":"0a17b06b"},"id":24}