{"abi":[{"type":"function","name":"allVestingContracts","inputs":[{"name":"","type":"uint256","internalType":"uint256"}],"outputs":[{"name":"","type":"address","internalType":"address"}],"stateMutability":"view"},{"type":"function","name":"createVesting","inputs":[{"name":"token","type":"address","internalType":"address"},{"name":"beneficiary","type":"address","internalType":"address"},{"name":"start","type":"uint64","internalType":"uint64"},{"name":"duration","type":"uint64","internalType":"uint64"},{"name":"amount","type":"uint256","internalType":"uint256"}],"outputs":[{"name":"","type":"address","internalType":"address"}],"stateMutability":"nonpayable"},{"type":"function","name":"getVestings","inputs":[{"name":"creator","type":"address","internalType":"address"}],"outputs":[{"name":"","type":"address[]","internalType":"address[]"}],"stateMutability":"view"},{"type":"function","name":"vestingsByCreator","inputs":[{"name":"","type":"address","internalType":"address"},{"name":"","type":"uint256","internalType":"uint256"}],"outputs":[{"name":"","type":"address","internalType":"address"}],"stateMutability":"view"},{"type":"event","name":"VestingCreated","inputs":[{"name":"creator","type":"address","indexed":true,"internalType":"address"},{"name":"vestingContract","type":"address","indexed":true,"internalType":"address"},{"name":"token","type":"address","indexed":false,"internalType":"address"},{"name":"beneficiary","type":"address","indexed":false,"internalType":"address"},{"name":"amount","type":"uint256","indexed":false,"internalType":"uint256"},{"name":"start","type":"uint64","indexed":false,"internalType":"uint64"},{"name":"duration","type":"uint64","indexed":false,"internalType":"uint64"}],"anonymous":false}],"bytecode":{"object":"0x608060405234801561000f575f80fd5b506116e38061001d5f395ff3fe608060405234801562000010575f80fd5b506004361062000050575f3560e01c8063726a8bf014620000545780637a0c6dc0146200008a578063a661d28e14620000c0578063fb2959d814620000f6575b5f80fd5b6200007260048036038101906200006c91906200051f565b6200012c565b604051620000819190620005b4565b60405180910390f35b620000a86004803603810190620000a29190620005cf565b620002e4565b604051620000b79190620006c6565b60405180910390f35b620000de6004803603810190620000d89190620006e8565b620003ae565b604051620000ed9190620005b4565b60405180910390f35b6200011460048036038101906200010e91906200072d565b620003f7565b604051620001239190620005b4565b60405180910390f35b5f808686868686604051620001419062000432565b620001519594939291906200077f565b604051809103905ff0801580156200016b573d5f803e3d5ffd5b5090505f81908060018154018082558091505060019003905f5260205f20015f9091909190916101000a81548173ffffffffffffffffffffffffffffffffffffffff021916908373ffffffffffffffffffffffffffffffffffffffff16021790555060015f3373ffffffffffffffffffffffffffffffffffffffff1673ffffffffffffffffffffffffffffffffffffffff1681526020019081526020015f2081908060018154018082558091505060019003905f5260205f20015f9091909190916101000a81548173ffffffffffffffffffffffffffffffffffffffff021916908373ffffffffffffffffffffffffffffffffffffffff1602179055508073ffffffffffffffffffffffffffffffffffffffff163373ffffffffffffffffffffffffffffffffffffffff167f19f0ed4b65156d145e1804471ec37c8ec2767ba5efcb90d65b72da63338ccccc8989878a8a604051620002cf959493929190620007da565b60405180910390a38091505095945050505050565b606060015f8373ffffffffffffffffffffffffffffffffffffffff1673ffffffffffffffffffffffffffffffffffffffff1681526020019081526020015f20805480602002602001604051908101604052809291908181526020018280548015620003a257602002820191905f5260205f20905b815f9054906101000a900473ffffffffffffffffffffffffffffffffffffffff1673ffffffffffffffffffffffffffffffffffffffff168152602001906001019080831162000358575b50505050509050919050565b6001602052815f5260405f208181548110620003c8575f80fd5b905f5260205f20015f915091509054906101000a900473ffffffffffffffffffffffffffffffffffffffff1681565b5f818154811062000406575f80fd5b905f5260205f20015f915054906101000a900473ffffffffffffffffffffffffffffffffffffffff1681565b610e78806200083683390190565b5f80fd5b5f73ffffffffffffffffffffffffffffffffffffffff82169050919050565b5f6200046f8262000444565b9050919050565b620004818162000463565b81146200048c575f80fd5b50565b5f813590506200049f8162000476565b92915050565b5f67ffffffffffffffff82169050919050565b620004c381620004a5565b8114620004ce575f80fd5b50565b5f81359050620004e181620004b8565b92915050565b5f819050919050565b620004fb81620004e7565b811462000506575f80fd5b50565b5f813590506200051981620004f0565b92915050565b5f805f805f60a086880312156200053b576200053a62000440565b5b5f6200054a888289016200048f565b95505060206200055d888289016200048f565b94505060406200057088828901620004d1565b93505060606200058388828901620004d1565b9250506080620005968882890162000509565b9150509295509295909350565b620005ae8162000463565b82525050565b5f602082019050620005c95f830184620005a3565b92915050565b5f60208284031215620005e757620005e662000440565b5b5f620005f6848285016200048f565b91505092915050565b5f81519050919050565b5f82825260208201905092915050565b5f819050602082019050919050565b620006338162000463565b82525050565b5f62000646838362000628565b60208301905092915050565b5f602082019050919050565b5f6200066a82620005ff565b62000676818562000609565b9350620006838362000619565b805f5b83811015620006b95781516200069d888262000639565b9750620006aa8362000652565b92505060018101905062000686565b5085935050505092915050565b5f6020820190508181035f830152620006e081846200065e565b905092915050565b5f806040838503121562000701576200070062000440565b5b5f62000710858286016200048f565b9250506020620007238582860162000509565b9150509250929050565b5f6020828403121562000745576200074462000440565b5b5f620007548482850162000509565b91505092915050565b6200076881620004a5565b82525050565b6200077981620004e7565b82525050565b5f60a082019050620007945f830188620005a3565b620007a36020830187620005a3565b620007b260408301866200075d565b620007c160608301856200075d565b620007d060808301846200076e565b9695505050505050565b5f60a082019050620007ef5f830188620005a3565b620007fe6020830187620005a3565b6200080d60408301866200076e565b6200081c60608301856200075d565b6200082b60808301846200075d565b969550505050505056fe608060405234801562000010575f80fd5b5060405162000e7838038062000e7883398181016040528101906200003691906200032f565b5f73ffffffffffffffffffffffffffffffffffffffff168573ffffffffffffffffffffffffffffffffffffffff1603620000a7576040517f08c379a00000000000000000000000000000000000000000000000000000000081526004016200009e9062000411565b60405180910390fd5b5f73ffffffffffffffffffffffffffffffffffffffff168473ffffffffffffffffffffffffffffffffffffffff160362000118576040517f08c379a00000000000000000000000000000000000000000000000000000000081526004016200010f906200047f565b60405180910390fd5b5f8267ffffffffffffffff161162000167576040517f08c379a00000000000000000000000000000000000000000000000000000000081526004016200015e90620004ed565b60405180910390fd5b845f806101000a81548173ffffffffffffffffffffffffffffffffffffffff021916908373ffffffffffffffffffffffffffffffffffffffff1602179055508360015f6101000a81548173ffffffffffffffffffffffffffffffffffffffff021916908373ffffffffffffffffffffffffffffffffffffffff16021790555082600160146101000a81548167ffffffffffffffff021916908367ffffffffffffffff1602179055508160025f6101000a81548167ffffffffffffffff021916908367ffffffffffffffff160217905550806003819055505f60048190555050505050506200050d565b5f80fd5b5f73ffffffffffffffffffffffffffffffffffffffff82169050919050565b5f6200027f8262000254565b9050919050565b620002918162000273565b81146200029c575f80fd5b50565b5f81519050620002af8162000286565b92915050565b5f67ffffffffffffffff82169050919050565b620002d381620002b5565b8114620002de575f80fd5b50565b5f81519050620002f181620002c8565b92915050565b5f819050919050565b6200030b81620002f7565b811462000316575f80fd5b50565b5f81519050620003298162000300565b92915050565b5f805f805f60a086880312156200034b576200034a62000250565b5b5f6200035a888289016200029f565b95505060206200036d888289016200029f565b94505060406200038088828901620002e1565b93505060606200039388828901620002e1565b9250506080620003a68882890162000319565b9150509295509295909350565b5f82825260208201905092915050565b7f746f6b656e2030000000000000000000000000000000000000000000000000005f82015250565b5f620003f9600783620003b3565b91506200040682620003c3565b602082019050919050565b5f6020820190508181035f8301526200042a81620003eb565b9050919050565b7f62656e65666963696172792030000000000000000000000000000000000000005f82015250565b5f62000467600d83620003b3565b9150620004748262000431565b602082019050919050565b5f6020820190508181035f830152620004988162000459565b9050919050565b7f6475726174696f6e2030000000000000000000000000000000000000000000005f82015250565b5f620004d5600a83620003b3565b9150620004e2826200049f565b602082019050919050565b5f6020820190508181035f8301526200050681620004c7565b9050919050565b61095d806200051b5f395ff3fe608060405234801561000f575f80fd5b5060043610610091575f3560e01c806386d1a69f1161006457806386d1a69f1461011f5780639613252114610129578063be9a655514610147578063fbccedae14610165578063fc0c546a1461018357610091565b80630a17b06b146100955780630fb5a6b4146100c55780631a39d8ef146100e357806338af3eed14610101575b5f80fd5b6100af60048036038101906100aa9190610504565b6101a1565b6040516100bc9190610547565b60405180910390f35b6100cd610287565b6040516100da919061056f565b60405180910390f35b6100eb6102a0565b6040516100f89190610547565b60405180910390f35b6101096102a6565b60405161011691906105c7565b60405180910390f35b6101276102cb565b005b610131610464565b60405161013e9190610547565b60405180910390f35b61014f61046a565b60405161015c919061056f565b60405180910390f35b61016d610484565b60405161017a9190610547565b60405180910390f35b61018b6104a0565b604051610198919061063b565b60405180910390f35b5f600160149054906101000a900467ffffffffffffffff1667ffffffffffffffff168267ffffffffffffffff1610156101dc575f9050610282565b5f600160149054906101000a900467ffffffffffffffff16836101ff9190610681565b905060025f9054906101000a900467ffffffffffffffff1667ffffffffffffffff168167ffffffffffffffff161061023c57600354915050610282565b60025f9054906101000a900467ffffffffffffffff1667ffffffffffffffff168167ffffffffffffffff1660035461027491906106bc565b61027e919061072a565b9150505b919050565b60025f9054906101000a900467ffffffffffffffff1681565b60035481565b60015f9054906101000a900473ffffffffffffffffffffffffffffffffffffffff1681565b5f6102d4610484565b90505f8111610318576040517f08c379a000000000000000000000000000000000000000000000000000000000815260040161030f906107b4565b60405180910390fd5b8060045f82825461032991906107d2565b925050819055505f8054906101000a900473ffffffffffffffffffffffffffffffffffffffff1673ffffffffffffffffffffffffffffffffffffffff1663a9059cbb60015f9054906101000a900473ffffffffffffffffffffffffffffffffffffffff16836040518363ffffffff1660e01b81526004016103ab929190610805565b6020604051808303815f875af11580156103c7573d5f803e3d5ffd5b505050506040513d601f19601f820116820180604052508101906103eb9190610861565b61042a576040517f08c379a0000000000000000000000000000000000000000000000000000000008152600401610421906108d6565b60405180910390fd5b7ffb81f9b30d73d830c3544b34d827c08142579ee75710b490bab0b3995468c565816040516104599190610547565b60405180910390a150565b60045481565b600160149054906101000a900467ffffffffffffffff1681565b5f600454610491426101a1565b61049b91906108f4565b905090565b5f8054906101000a900473ffffffffffffffffffffffffffffffffffffffff1681565b5f80fd5b5f67ffffffffffffffff82169050919050565b6104e3816104c7565b81146104ed575f80fd5b50565b5f813590506104fe816104da565b92915050565b5f60208284031215610519576105186104c3565b5b5f610526848285016104f0565b91505092915050565b5f819050919050565b6105418161052f565b82525050565b5f60208201905061055a5f830184610538565b92915050565b610569816104c7565b82525050565b5f6020820190506105825f830184610560565b92915050565b5f73ffffffffffffffffffffffffffffffffffffffff82169050919050565b5f6105b182610588565b9050919050565b6105c1816105a7565b82525050565b5f6020820190506105da5f8301846105b8565b92915050565b5f819050919050565b5f6106036105fe6105f984610588565b6105e0565b610588565b9050919050565b5f610614826105e9565b9050919050565b5f6106258261060a565b9050919050565b6106358161061b565b82525050565b5f60208201905061064e5f83018461062c565b92915050565b7f4e487b71000000000000000000000000000000000000000000000000000000005f52601160045260245ffd5b5f61068b826104c7565b9150610696836104c7565b9250828203905067ffffffffffffffff8111156106b6576106b5610654565b5b92915050565b5f6106c68261052f565b91506106d18361052f565b92508282026106df8161052f565b915082820484148315176106f6576106f5610654565b5b5092915050565b7f4e487b71000000000000000000000000000000000000000000000000000000005f52601260045260245ffd5b5f6107348261052f565b915061073f8361052f565b92508261074f5761074e6106fd565b5b828204905092915050565b5f82825260208201905092915050565b7f6e6f7468696e6720746f2072656c6561736500000000000000000000000000005f82015250565b5f61079e60128361075a565b91506107a98261076a565b602082019050919050565b5f6020820190508181035f8301526107cb81610792565b9050919050565b5f6107dc8261052f565b91506107e78361052f565b92508282019050808211156107ff576107fe610654565b5b92915050565b5f6040820190506108185f8301856105b8565b6108256020830184610538565b9392505050565b5f8115159050919050565b6108408161082c565b811461084a575f80fd5b50565b5f8151905061085b81610837565b92915050565b5f60208284031215610876576108756104c3565b5b5f6108838482850161084d565b91505092915050565b7f7472616e73666572206661696c656400000000000000000000000000000000005f82015250565b5f6108c0600f8361075a565b91506108cb8261088c565b602082019050919050565b5f6020820190508181035f8301526108ed816108b4565b9050919050565b5f6108fe8261052f565b91506109098361052f565b925082820390508181111561092157610920610654565b5b9291505056fea26469706673582212206d93bdaf78c416494ee070d59de704774aa2618ad3c7c696949334a4e3c39b4364736f6c63430008140033a2646970667358221220c038eb8f41eec095c86ab25f9fbbf3c6b1fcd6b24775dfe8cca6851fc0362f9a64736f6c63430008140033","linkReferences":{}},"methodIdentifiers":{"allVestingContracts(uint256)":"fb2959d8","createVesting(address,address,uint64,uint64,uint256)":"726a8bf0","getVestings(address)":"7a0c6dc0","vestingsByCreator(address,uint256)":"a661d28e"},"id":25}